:100B1B0060801A00010201013F0101070000020081
:100B2B00010000000702020707070707000000008B
:100B3B003F00003F03013F010101010702020500D5
:100B4B0000000000050707070707070700003F0025
:100B5B000000003F0101010101010107000000003D
:100B6B000000000007070707070707070000000042
:100B7B000000003F0101010101010107000000001D
:100B8B000000000007070707070707070000000022
:100B9B000000003F60241A870000000000000000E6
:100BAB00000000000000000000000000000000003A
:100BBB00000000000000000000000000471A80C089
:060BCB00000007CEE4006B
:100C0A0090E60174CEF090E6F574FFF0901A80E059
:100C1A0090E6F3F0901A81E090E6C3F0901A82E031
:100C2A0090E6C1F0901A83E090E6C2F0901A85E04F
:100C3A0090E6C0F0901A86E090E6F4F075AF07747B
:100C4A001AF59A7400F59B759DE4E4F59EFF90E60B
:100C5A007BE090E67CF00FBF80F490E67174FFF0C1
:100C6A00F5B490E672E04480F043B680000000E4F8
:100C7A0090E6C4F000000090E6C5F0901A87E09074
:100C8A00E6C6F0901A88E090E6C7F0901A89E090DC
:100C9A00E6C8F0901A8AE090E6C9F0901A8BE090C4
:100CAA00E6CAF0901A8CE090E6CBF0901A8DE090AC
:0B0CBA00E6CCF0901A8EE090E6CDF042
:010CC500220C
:0A133B00000102020303040405058B
:10052400E4F513F512F511F510C20BC208C20AC2A4
:1005340009120DB87E017F008E248F25752C01755C
:100544002D14752201752320752A01752B42752EF1
:1005540001752F6490E680E030E70E85222685231E
:1005640027852A28852B29800C852A26852B2785F3
:100574002228852329EE54E0700302068F751400A7
:100584007515807E017F008E168F17C374B89FFF88
:1005940074019ECF2402CF3400FEE48F0F8E0EF53B
:1005A4000DF50CF50BF50AF509F508AF0FAE0EAD18
:1005B4000DAC0CAB0BAA0AA909A808C3120ED350A0
:1005C40026E515250BF582E514350AF58374CDF07F
:1005D400E50B2401F50BE4350AF50AE43509F509C0
:1005E400E43508F50880C4E4F50BF50AF509F508C7
:1005F400AF0FAE0EAD0DAC0CAB0BAA0AA909A8083F
:10060400C3120ED35033E517250BF582E516350AD0
:10061400F583E0FFE515250BF582E514350AF5832E
:10062400EFF0E50B2401F50BE4350AF50AE435098E
:10063400F509E43508F50880B78514248515257473
:10064400002480FF740134FFFEC3E52D9FF52DE5E2
:100654002C9EF52CC3E5279FF527E5269EF526C39A
:10066400E5299FF529E5289EF528C3E5239FF52371
:10067400E5229EF522C3E52B9FF52BE52A9EF52A5C
:10068400C3E52F9FF52FE52E9EF52ED2E843D82003
:1006940090E668E04409F090E65CE0443DF0D2AFB7
:1006A40090E680E020E105D20C1211D890E680E0BB
:1006B40054F7F0538EF8C20B300905120300C20937
:1006C400300B29120CFE5024C20B12125E200816A5
:1006D40090E682E030E704E020E1EF90E682E0304B
:1006E400E604E020E0E412120712135E1208B98057
:0106F400C73E
:1003000090E6B9E070030203B114700302042E24D6
:10031000FE70030204B124FB70030203AB147003EC
:100320000203A514607314607624056003020510AF
:10033000121360400302051C90E6BBE024FE60221D
:1003400014603324FD601114602224067048E524F3
:1003500090E6B3F0E5258037E52C90E6B3F0E52D87
:10036000802DE52690E6B3F0E5278023E52890E68A
:10037000B3F0E529801990E6BAE0FF121233AA061D
:10038000A9077B01EA494B600DEE90E6B3F0EF90D0
:10039000E6B4F002051C02051512132902051C1211
:1003A000134502051C1210C202051C121317020588
:1003B0001C121362400302051C90E6B8E0247F6023
:1003C0001514601924027063A208E43325E0FFA22B
:1003D0000AE4334F8041E490E740F0803F90E6BC70
:1003E000E0547EFF7E00E0D394807C0040047D01D9
:1003F00080027D00EC4EFEED4F243BF58274133EEF
:10040000F583E493FF3395E0FEEF24A1FFEE34E69D
:100410008F82F583E0540190E740F0E4A3F090E68A
:100420008AF090E68B7402F002051C020515121387
:1004300064400302051C90E6B8E024FE6016240226
:10044000600302051C90E6BAE0B40105C20802058B
:100450001C02051590E6BAE0705590E6BCE0547EAB
:10046000FF7E00E0D394807C0040047D0180027D0B
:1004700000EC4EFEED4F243BF58274133EF583E411
:1004800093FF3395E0FEEF24A1FFEE34E68F82F573
:1004900083E054FEF090E6BCE05480131313541F25
:1004A000FFE0540F2F90E683F0E04420F0806D8051
:1004B00064121366506690E6B8E024FE60192402C8
:1004C000705A90E6BAE0B40104D208804F90E6BAC0
:1004D000E064026047803E90E6BCE0547EFF7E0010
:1004E000E0D394807C0040047D0180027D00EC4ECE
:1004F000FEED4F243BF58274133EF583E493FF3306
:1005000095E0FEEF24A1FFEE34E68F82F5838008AC
:100510001206F5500790E6A0E04401F090E6A0E056
:030520004480F024
:0105230022B5
:0300330002135A5B
:04135A0053D8EF3243
:100100001201000200000040B404092000000102B6
:020110000001EC
:0A0114000A0600020000004001008E
:1001200009022000010100A0320904000002FF00C2
:100130000000070502020002000705860200020017
:1001420009022000010100A0320904000002FF00A0
:100152000000070502024000000705860240000079
:100164000403090410034300790070007200650061
:1001740073007300400345005A002D0055005300DE
:100184004200200046005800320020004200610076
:1001940063006B00200074006F00200042006100C7
:1001A40063006B0020004500780061006D00700062
:0601B4006C006500000074
:0300030002135590
:05135500D204C2A83221
:100BD100501AB1C0F9A4B0999282F880988883C65E
:100BE100A1868EC104421AAD0000411AAC00421A1E
:100BF100AF7530013100411AAB00C103C107C10615
:080C0100C102C180C101C1055F
:100DB80090E6007410F0000000120C0A90E60B7424
:100DC80003F000000012134D901AAF7403F0A374DF
:100DD800E8F090E61274A0F000000090E61474E0C9
:100DE800F0000000E490E613F000000090E615F033
:100DF80000000090E6047480F00000007402F00027
:100E080000007406F00000007404F000000074088C
:100E1800F0000000E4F000000090E618F000000088
:100E280090E61AF000000090E6497482F000000095
:100E3800F0000000F0000000F000000090E6D2741E
:100E480002F000000090E6E214F0000000E490E6F2
:100E580071F075B4F9D2A075B2C090E670E04401A3
:060E6800F0D2A8D288229E
:1008B90090E6A5E054F0C4540F24B1F582E4341A4B
:1008C900AB82FA7D017F2112129F7F21120CC61281
:1008D9000F96A205B330A101B34006A2A19205D299
:1008E900A0E5AA20E03500000090F0007401F000B6
:1008F9000000A304F0000000A304F0000000A3041A
:10090900F0000000A304F000000090E6907402F0EB
:10091900000000E490E691F0000000E5AB20E15210
:1009290090E6F4E030E14B30A048E5BB30E743C244
:1009390086D28700000030011200000090E6D074D2
:1009490002F0000000E490E6D18010000000E4907D
:10095900E6D0F000000090E6D17440F000000000FD
:100969000000E4F5BB000000E5BB30E7FB00000038
:10097900C2A020A2030209FEE5BB20E703020A1276
:10098900C286C28700000090E6F4E030E07BE5AC67
:1009990020E07630011200000090E6D07402F000E9
:1009A9000000E490E6D18010000000E490E6D0F069
:1009B90000000090E6D17440F000000075BB06000D
:1009C9000000E5BB30E7FB90F8047405F090F803EC
:1009D90014F090F80214F090F80114F090F8001453
:1009E900F000000000000090E69804F0000000E428
:1009F90090E699801090E6047480F0000000740677
:090A0900F0000000E4F000000020
:010A120022C1
:020CFE00D322FF
:02135E00D32298
:02136000D32296
:1010C20090E680E030E71800000090E6247402F019
:1010D200000000E490E625F0000000D20180160036
:1010E2000000E490E624F000000090E6257440F051
:0D10F200000000C20190E6BAE0F532D32202
:1013170090E740E532F0E490E68AF090E68B04F03F
:02132700D322CF
:0813450090E6BAE0F530D32276
:1013290090E740E530F0E490E68AF090E68B04F02F
:02133900D322BD
:02136200D32294
:02136400D32292
:02136600D32290
:1006F50090E6B9E0120EE40752B0078EB1083AB29F
:10070500084BB3085EB40871B50891B60731BE074A
:10071500E1C00806C107C0C20724C4000008B530FF
:100725000702D20390E74074C402083FD202E49066
:10073500E618F00000007410F000000090E61A744E
:1007450008F000000090E74074BE02083FC202E4D2
:1007550090E618F000000090E61AF000000090E620
:10076500497482F0000000F000000090E604740671
:10077500F000000090E6487486F0000000F00000EC
:100785000090E74074B002083FD20290E6497482B7
:10079500F0000000F000000090E6047402F0000094
:1007A5000090E6187410F000000090E61A7408F046
:1007B50000000090E74074B102083F90E690740293
:1007C500F0000000E490E691F000000090E6497426
:1007D50082F000000090E74074C2805E90F000E077
:1007E50090E740F090F001E090E741F090F002E0F2
:1007F50090E742F090F003E090E743F090F004803A
:100805002390F400E090E740F090F401E090E74198
:10081500F090F402E090E742F090F403E090E743B3
:10082500F090F404E090E744F0E490E68AF090E676
:100835008B7405807190E74074B2F0E490E68AF01D
:1008450090E68B048060D20090E74074B3F0E490AA
:10085500E68AF090E68B04804DC20090E74074B4C0
:10086500F0E490E68AF090E68B04803A90E74074D5
:10087500B5F000000090E6F4E090E741F0000000DC
:10088500E490E68AF090E68B7402801A90E7407453
:10089500B6F0000000A3E5BBF0000000E490E68A96
:1008A500F090E68B7402F090E6A0E04480F08002C0
:0408B500D322C32265
:1012BB00C0E0C083C082D2095391EF90E65D740108
:0812CB00F0D082D083D0E032A4
:1012EB00C0E0C083C0825391EF90E65D7404F0D0F0
:0612FB0082D083D0E03236
:10130100C0E0C083C0825391EF90E65D7402F0D0DB
:0613110082D083D0E0321F
:10113C00C0E0C083C082852A26852B27852782851F
:10114C002683A37402F0852228852329852982858C
:10115C002883A37407F05391EF90E65D7410F0D0E0
:06116C0082D083D0E032C6
:1012D300C0E0C083C082D20B5391EF90E65D7408E7
:0812E300F0D082D083D0E0328C
:1010FF00C0E0C083C08290E680E030E720852226E2
:10110F00852327852782852683A37402F0852A28C5
:10111F00852B29852982852883A37407F05391EFA6
:0D112F0090E65D7420F0D082D083D0E032D5
:011368003252
:011369003251
:01136A003250
:01136B00324F
:01136C00324E
:01136D00324D
:01136E00324C
:01136F00324B
:01137000324A
:011371003249
:011372003248
:011373003247
:011374003246
:011375003245
:011376003244
:011377003243
:011378003242
:011379003241
:01137A003240
:01137B00323F
:01137C00323E
:01137D00323D
:01137E00323C
:01137F00323B
:01138000323A
:011381003239
:011382003238
:011383003237
:011384003236
:011385003235
:011386003234
:011387003233
:011388003232
:011389003231
:01138A003230
:01138B00322F
:100FEE00AD07ED30E00D908000E0F531901AABE0EA
:100FFE0054FEF0ED30E10D909000E0F531901AAB1B
:10100E00E054FDF0ED30E20D90A000E0F531901AC5
:10101E00ABE054FBF0ED30E30D90B000E0F5319015
:07102E001AABE054F7F022B9
:10103500AD07ED30E00D908800E0F531901AABE09A
:101045004401F0ED30E10D909800E0F531901AABD8
:10105500E04402F0ED30E20D90A800E0F531901A81
:10106500ABE04404F0ED30E30D90B800E0F53190CD
:071075001AABE04408F02271
:100F9600E5AB7F0420E1051210358003120FEEE564
:100FA600AC7F0820E0051210358003120FEE901A70
:100FB600ADE475F001120EBDFE901AAFE0B506273E
:100FC600A3E0B5F022901AACE07F01600A120FEEA2
:100FD600E4901AACF08009121035901AAC7401F046
:080FE600E4901AADF0A3F02223
:1012070090E682E030E004E020E60B90E682E030F2
:10121700E119E030E71590E680E04401F07F147EA5
:0C1227000012107C90E680E054FEF022E3
:1011D800300C0990E680E0440AF0800790E680E051
:1011E8004408F07FDC7E0512107C90E65D74FFF009
:0F11F80090E65FF05391EF90E680E054F7F0221D
:08134D00E4F51FD2E9D2AF2242
:100CC600AD0790E678E020E6F9C2E990E678E044E0
:100CD60080F0ED25E090E679F090E678E030E0F9F6
:100CE60090E678E04440F090E678E020E6F990E679
:080CF60078E030E1D6D2E922DA
:1011A600AC0790E678E020E6F9E51F702390E67834
:1011B600E04480F0EC25E090E679F08D1AAF03A9C3
:1011C60007751B018A1C891DE4F51E751F01D322B4
:0211D600C32232
:10117200AC0790E678E020E6F9E51F702590E67866
:10118200E04480F0EC25E0440190E679F08D1AAF5E
:1011920003A907751B018A1C891DE4F51E751F032F
:0411A200D322C3226F
:03004B00020A1393
:100A1300C0E0C083C082C085C084C086758600C024
:100A2300D075D000C000C001C002C003C006C0071B
:100A330090E678E030E206751F06020AFD90E6783C
:100A4300E020E10CE51F64026006751F07020AFD42
:100A5300E51F24FE605F14603624FE7003020AEE75
:100A630024FC7003020AFA24086003020AFDAB1B8C
:100A7300AA1CA91DAF1E051E8F82758300120E6E60
:100A830090E679F0E51E651A7070751F05806B900E
:100A9300E679E0AB1BAA1CA91DAE1E8E82758300EE
:100AA300120E9B751F02E51A6401704E90E678E002
:100AB3004420F08045E51A24FEB51E0790E678E051
:100AC3004420F0E51A14B51E0A90E678E04440F09D
:100AD300751F0090E679E0AB1BAA1CA91DAE1E8E04
:100AE30082758300120E9B051E800F90E678E0440A
:100AF30040F0751F008003751F005391DFD007D0AE
:100B030006D003D002D001D000D0D0D086D084D07C
:080B130085D082D083D0E032CE
:02123300A90709
:10123500AE2EAF2F8F828E83A3E064037017AD01AE
:1012450019ED7001228F828E83E07C002FFDEC3E2C
:08125500FEAF0580DFE4FEFF9F
:01125D00226E
:10128300121172E51F24FA600E146006240770F32E
:0C129300D322E4F51FD322E4F51FD32280
:10129F001211A6E51F24FA600E146006240770F3DE
:0C12AF00D322E4F51FD322E4F51FD32264
:10125E0090E682E044C0F090E681F0438701000002
:04126E00000000225A
:10107C008E188F1990E600E054187012E5192401AF
:10108C00FFE43518C313F518EF13F519801590E626
:10109C0000E05418FFBF100BE51925E0F519E51811
:1010AC0033F518E5191519AE18700215184E6005B0
:0610BC0012127280EE2208
:101272007400F58690FDA57C05A3E582458370F98F
:011282002249
:03004300020D00AB
:03005300020D009B
:100D00000212BB00021301000212EB000212D30018
:100D100002113C000210FF00021368000213690078
:100D200002136A0002136B0002136C0002136D00C1
:100D300002136E0002136F000213700002137100A1
:100D4000021372000213690002137300021374008D
:100D50000213750002137600021377000213780065
:100D6000021379000213690002136900021369007B
:100D700002137A0002137B0002137C0002137D0031
:100D800002137E0002137F00021380000213810011
:100D900002138200021383000213840002138500F1
:100DA00002138600021387000213880002138900D1
:080DB00002138A0002138B00FC
:03000000020F0AE2
:0C0F0A00787FE4F6D8FD758132020F51AB
:100E6E00BB010CE58229F582E5833AF583E0225039
:100E7E0006E92582F8E622BBFE06E92582F8E22283
:0D0E8E00E58229F582E5833AF583E493229D
:100E9B00F8BB010DE58229F582E5833AF583E8F08D
:100EAB00225006E92582C8F622BBFE05E92582C839
:020EBB00F22221
:100EBD00C5F0F8A3E028F0C5F0F8E58215827002C0
:060ECD001583E038F0225D
:100ED300EB9FF5F0EA9E42F0E99D42F0E89C45F075
:010EE30022EC
:100EE400D083D082F8E4937012740193700DA3A39D
:100EF40093F8740193F5828883E4737402936860B1
:060F0400EFA3A3A380DFB0
:100F1600020524E493A3F8E493A34003F68001F2C8
:100F260008DFF48029E493A3F85407240CC8C333DC
:100F3600C4540F4420C8834004F456800146F6DFAB
:100F4600E4800B0102040810204080900B1BE47E15
:100F5600019360BCA3FF543F30E509541FFEE493A0
:100F6600A360010ECF54C025E060A840B8E493A367
:100F7600FAE493A3F8E493A3C8C582C8CAC583CA92
:100F8600F0A3C8C582C8CAC583CADFE9DEE780BE4A
:010C090000EA
:00000001FF
