:0A0B95000001020203030404050539
:10059A00E4F513F512F511F510F51BF51AF519F531
:1005AA0018C203C200C202C2011208B87E017F004B
:1005BA008E238F24752B01752C1275210175221C2F
:1005CA00752901752A3C752D01752E5C90E680E02F
:1005DA0030E70E852125852226852927852A288028
:1005EA000C852925852A26852127852228EE54E08F
:1005FA0070030207157514007515807E017F008E41
:10060A00168F17C374EC9FFF74019ECF2402CF3458
:10061A0000FEE48F0F8E0EF50DF50CF50BF50AF5BD
:10062A0009F508AF0FAE0EAD0DAC0CAB0BAA0AA9BB
:10063A0009A808C3120B78502AE515250BF582E59F
:10064A0014350AF58374CDF0E4FAF9F8E50B2401C0
:10065A00F50BEA350AF50AE93509F509E83508F529
:10066A000880C0E4F50BF50AF509F508AF0FAE0EE0
:10067A00AD0DAC0CAB0BAA0AA909A808C3120B78DA
:10068A005037E517250BF582E516350AF583E0FFA5
:10069A00E515250BF582E514350AF583EFF0E4FA42
:1006AA00F9F8E50B2401F50BEA350AF50AE93509EB
:1006BA00F509E83508F50880B385142385152474EF
:1006CA00002480FF740134FFFEC3E52C9FF52CE55E
:1006DA002B9EF52BC3E5269FF526E5259EF525C31A
:1006EA00E5289FF528E5279EF527C3E5229FF522F1
:1006FA00E5219EF521C3E52A9FF52AE5299EF529DC
:10070A00C3E52E9FF52EE52D9EF52DD2E843D82080
:10071A0090E668E04409F090E65CE0443DF0D2AF30
:10072A0090E680E020E105D205120A4D90E680E0CD
:10073A0054F7F0538EF8C203300105120300C201C8
:10074A00300329120BA75024C203120AD320001621
:10075A0090E682E030E704E020E1EF90E682E030C4
:10076A00E604E020E0E4120A7C120BA9120BB58021
:01077A00C7B7
:01077B00225B
:1003000090E6B9E070030203DC1470030204852454
:10031000FE700302051A24FB70030203D614700357
:100320000203D01470030203C41470030203CA242E
:10033000056003020586120BAB400302059290E6AE
:10034000BBE024FE602C14604724FD60161460316D
:1003500024067066E52390E6B3F0E52490E6B4F059
:10036000020592E52B90E6B3F0E52C90E6B4F0029E
:100370000592E52590E6B3F0E52690E6B4F0020597
:1003800092E52790E6B3F0E52890E6B4F0020592F6
:1003900090E6BAE0FF120AA8AA06A9077B01EA497B
:1003A0004B600DEE90E6B3F0EF90E6B4F0020592EC
:1003B00090E6A0E04401F002059290E6A0E044013E
:1003C000F0020592120B66020592120B9F02059233
:1003D00012077C020592120B54020592120BAD40DB
:1003E0000302059290E6B8E0247F602B14603C2461
:1003F00002600302047BA200E433FF25E0FFA202B7
:10040000E4334F90E740F0E4A3F090E68AF090E602
:100410008B7402F0020592E490E740F0A3F090E6BE
:100420008AF090E68B7402F002059290E6BCE054EC
:100430007EFF7E00E0D3948040067C007D01800436
:100440007C007D00EC4EFEED4F2495F582740B3E52
:10045000F583E493FF3395E0FEEF24A1FFEE34E64D
:100460008F82F583E0540190E740F0E4A3F090E63A
:100470008AF090E68B7402F002059290E6A0E044C8
:1004800001F0020592120BAF400302059290E6B80C
:10049000E024FE601D2402600302059290E6BAE0AB
:1004A000B40105C20002059290E6A0E04401F0020A
:1004B000059290E6BAE0705990E6BCE0547EFF7E6B
:1004C00000E0D3948040067C007D0180047C007DA8
:1004D00000EC4EFEED4F2495F582740B3EF583E45F
:1004E00093FF3395E0FEEF24A1FFEE34E68F82F513
:1004F00083E054FEF090E6BCE05480FF13131354E5
:100500001FFFE0540F2F90E683F0E04420F0020537
:100510009290E6A0E04401F08078120BB150739005
:10052000E6B8E024FE60202402706790E6BAE0B4EA
:100530000104D200805C90E6BAE06402605490E668
:10054000A0E04401F0804B90E6BCE0547EFF7E00CA
:10055000E0D3948040067C007D0180047C007D0017
:10056000EC4EFEED4F2495F582740B3EF583E4933B
:10057000FF3395E0FEEF24A1FFEE34E68F82F58392
:10058000E04401F0800C120BB3500790E6A0E04469
:0905900001F090E6A0E04480F0C7
:01059900223F
:030033000207FCC5
:0407FC0053D8EF32AD
:100100001201000200000040B404F10000000102EE
:1001100000010A0600020000004001000902200060
:10012000010100A0320904000002FF0000000705E1
:1001300002020002000705860200020009022000F8
:10014000010100A0320904000002FF0000000705C1
:10015000040240000007058802400000040309046F
:100160001003430079007000720065007300730093
:100170007C0345005A002D0055005300420020002A
:100180004600580032002000470050004900460059
:10019000200074006F0020004500780074002000EB
:1001A0004600490046004F002000450078006100ED
:1001B0006D0070006C006500200075007300690020
:1001C0006E0067002000530069006E0067006C003D
:1001D000650020005400720061006E007300610031
:0E01E0006300740069006F006E007300000081
:0B0B8900421A010000411A0000C104E4
:1008B80090E6007412F090E6027408F000000090D0
:1008C800E60374E0F000000090E6707480F0000029
:1008D8000090E6017403F000000090E61274A0F0A6
:1008E80000000090E61474E0F000000090E6137435
:1008F80002F000000090E615F000000000000090F3
:10090800E6047480F00000007402F0000000740433
:10091800F00000007406F00000007408F000000009
:10092800E4F000000090E618F00000007411F000F8
:0C093800000090E61A740DF00000002290
:010BB500221D
:020BA700D32257
:020BA900D32255
:020BAB00D32253
:10077C0090E680E030E71E90E6247402F000000062
:10078C0090E626F0000000E490E625F000000090D2
:10079C00E627F0801CE490E624F000000090E626AA
:1007AC00F000000090E6257440F000000090E62771
:0907BC00F090E6BAE0F51FD3222B
:100B540090E740E51FF0E490E68AF090E68B04F01D
:020B6400D3229A
:080B9F0090E6BAE0F51ED32236
:100B660090E740E51EF0E490E68AF090E68B04F00C
:020B7600D32288
:020BAD00D32251
:020BAF00D3224F
:020BB100D3224D
:020BB300D3224B
:100AF800C0E0C083C082D2015391EF90E65D7401DB
:080B0800F0D082D083D0E0326E
:100B2800C0E0C083C0825391EF90E65D7404F0D0BA
:060B380082D083D0E03200
:100B3E00C0E0C083C0825391EF90E65D7402F0D0A6
:060B4E0082D083D0E032EA
:1007C500C0E0C083C08290E680E030E70E85212539
:1007D500852226852927852A28800C852925852A8D
:1007E500268521278522285391EF90E65D7410F028
:0707F500D082D083D0E03276
:100B1000C0E0C083C082D2035391EF90E65D7408B9
:080B2000F0D082D083D0E03256
:100A1600C0E0C083C08290E680E030E70E852125E5
:100A2600852226852927852A28800C852925852A39
:100A3600268521278522285391EF90E65D7420F0C4
:070A4600D082D083D0E03222
:010BB600320C
:010BB700320B
:010BB800320A
:010BB9003209
:010BBA003208
:010BBB003207
:010BBC003206
:010BBD003205
:010BBE003204
:010BBF003203
:010BC0003202
:010BC1003201
:010BC2003200
:010BC30032FF
:010BC40032FE
:010BC50032FD
:010BC60032FC
:010BC70032FB
:010BC80032FA
:010BC90032F9
:010BCA0032F8
:010BCB0032F7
:010BCC0032F6
:010BCD0032F5
:010BCE0032F4
:010BCF0032F3
:010BD00032F2
:010BD10032F1
:010BD20032F0
:010BD30032EF
:010BD40032EE
:010BD50032ED
:010BD60032EC
:010BD70032EB
:010BD80032EA
:010BD90032E9
:100A7C0090E682E030E004E020E60B90E682E03085
:100A8C00E119E030E71590E680E04401F07F147E38
:0C0A9C00001209D090E680E054FEF02229
:100A4D0030050990E680E0440AF0800790E680E0EA
:100A5D004408F07FDC7E051209D090E65D74FFF04E
:0F0A6D0090E65FF05391EF90E680E054F7F022AF
:020AA800A9079C
:100AAA00AE2DAF2E8F828E83A3E064037017AD0143
:100ABA0019ED7001228F828E83E07C002FFDEC3EBF
:080ACA00FEAF0580DFE4FEFF32
:010AD2002201
:100AD30090E682E044C0F090E681F0438701000095
:040AE30000000022ED
:1009D0008E1C8F1D90E600E054187012E51D240156
:1009E000FFE4351CC313F51CEF13F51D801590E6CD
:1009F00000E05418FFBF100BE51D25E0F51DE51CB8
:100A000033F51CE51D151DAE1C7002151C4E60054E
:060A1000120AE780EE224D
:100AE7007400F58690FDA57C05A3E582458370F922
:010AF70022DC
:03004300020800B0
:03005300020800A0
:10080000020AF800020B3E00020B2800020B100047
:100810000207C500020A1600020BB600020BB70061
:10082000020BB800020BB900020BBA00020BBB00AE
:10083000020BBC00020BBD00020BBE00020BBF008E
:10084000020BC000020BB700020BC100020BC2007A
:10085000020BC300020BC400020BC500020BC60052
:10086000020BC700020BB700020BB700020BB70068
:10087000020BC800020BC900020BCA00020BCB001E
:10088000020BCC00020BCD00020BCE00020BCF00FE
:10089000020BD000020BD100020BD200020BD300DE
:1008A000020BD400020BD500020BD600020BD700BE
:0808B000020BD800020BD90075
:03000000020944AE
:0C094400787FE4F6D8FD75812E02098B47
:100B7800EB9FF5F0EA9E42F0E99D42F0E89C45F0D3
:010B8800224A
:1009500002059AE493A3F8E493A34003F68001F21E
:1009600008DFF48029E493A3F85407240CC8C333A8
:10097000C4540F4420C8834004F456800146F6DF77
:10098000E4800B0102040810204080900B89E47E73
:10099000019360BCA3FF543F30E509541FFEE4936C
:1009A000A360010ECF54C025E060A840B8E493A333
:1009B000FAE493A3F8E493A3C8C582C8CAC583CA5E
:1009C000F0A3C8C582C8CAC583CADFE9DEE780BE16
:010B94000060
:00000001FF
