:1007FD0060801A00010201013F01010700000200A3
:10080D0001000000070202070707070700000000AC
:10081D003F00003F03013F010101010702020500F6
:10082D0000000000050707070707070700003F0046
:10083D000000003F0101010101010107000000005E
:10084D000000000007070707070707070000000063
:10085D000000003F0101010101010107000000003E
:10086D000000000007070707070707070000000043
:10087D000000003F60241A87000000000000000007
:10088D00000000000000000000000000000000005B
:10089D00000000000000000000000000471A80C0AA
:0608AD00000007CEE4008C
:1009C80090E60174CEF090E6F574FFF0901A80E09E
:1009D80090E6F3F0901A81E090E6C3F0901A82E076
:1009E80090E6C1F0901A83E090E6C2F0901A85E094
:1009F80090E6C0F0901A86E090E6F4F075AF0774C0
:100A08001AF59A7400F59B759DE4E4F59EFF90E64F
:100A18007BE090E67CF00FBF80F490E67174FFF005
:100A2800F5B490E672E04480F043B680000000E43C
:100A380090E6C4F000000090E6C5F0901A87E090B8
:100A4800E6C6F0901A88E090E6C7F0901A89E09020
:100A5800E6C8F0901A8AE090E6C9F0901A8BE09008
:100A6800E6CAF0901A8CE090E6CBF0901A8DE090F0
:0B0A7800E6CCF0901A8EE090E6CDF086
:010A83002250
:0A1140000001020203030404050588
:10052400E4F513F512F511F510C203C200C202C2BC
:1005340001120BB87E017F008E238F24752B017569
:100544002C14752101752220752901752A42752DF7
:1005540001752E6490E680E030E70E852125852222
:1005640026852927852A28800C852925852A2685FC
:100574002127852228EE54E0700302068F751400AB
:100584007515807E017F008E168F17C374B89FFF88
:1005940074019ECF2402CF3400FEE48F0F8E0EF53B
:1005A4000DF50CF50BF50AF509F508AF0FAE0EAD18
:1005B4000DAC0CAB0BAA0AA909A808C3120AE9508E
:1005C40026E515250BF582E514350AF58374CDF07F
:1005D400E50B2401F50BE4350AF50AE43509F509C0
:1005E400E43508F50880C4E4F50BF50AF509F508C7
:1005F400AF0FAE0EAD0DAC0CAB0BAA0AA909A8083F
:10060400C3120AE95033E517250BF582E516350ABE
:10061400F583E0FFE515250BF582E514350AF5832E
:10062400EFF0E50B2401F50BE4350AF50AE435098E
:10063400F509E43508F50880B78514238515247475
:10064400002480FF740134FFFEC3E52C9FF52CE5E4
:100654002B9EF52BC3E5269FF526E5259EF525C3A0
:10066400E5289FF528E5279EF527C3E5229FF52277
:10067400E5219EF521C3E52A9FF52AE5299EF52962
:10068400C3E52E9FF52EE52D9EF52DD2E843D82007
:1006940090E668E04409F090E65CE0443DF0D2AFB7
:1006A40090E680E020E105D207120FDD90E680E0BD
:1006B40054F7F0538EF8C203300105120300C2014F
:1006C40030032912115E5024C20312106320001655
:1006D40090E682E030E704E020E1EF90E682E0304B
:1006E400E604E020E0E412100C1211601208E58028
:0106F400C73E
:1003000090E6B9E070030203B114700302042E24D6
:10031000FE70030204B124FB70030203AB147003EC
:100320000203A514607314607624056003020510AF
:10033000121162400302051C90E6BBE024FE60221D
:1003400014603324FD601114602224067048E523F4
:1003500090E6B3F0E5248037E52B90E6B3F0E52C8A
:10036000802DE52590E6B3F0E5268023E52790E68D
:10037000B3F0E528801990E6BAE0FF121038AA061B
:10038000A9077B01EA494B600DEE90E6B3F0EF90D0
:10039000E6B4F002051C02051512112E02051C120E
:1003A000114A02051C120E8F02051C12111C0205B7
:1003B0001C121164400302051C90E6B8E0247F6023
:1003C0001514601924027063A200E43325E0FFA233
:1003D00002E4334F8041E490E740F0803F90E6BC78
:1003E000E0547EFF7E00E0D394807C0040047D01D9
:1003F00080027D00EC4EFEED4F2440F58274113EEC
:10040000F583E493FF3395E0FEEF24A1FFEE34E69D
:100410008F82F583E0540190E740F0E4A3F090E68A
:100420008AF090E68B7402F002051C020515121189
:1004300066400302051C90E6B8E024FE6016240224
:10044000600302051C90E6BAE0B40105C200020593
:100450001C02051590E6BAE0705590E6BCE0547EAB
:10046000FF7E00E0D394807C0040047D0180027D0B
:1004700000EC4EFEED4F2440F58274113EF583E40E
:1004800093FF3395E0FEEF24A1FFEE34E68F82F573
:1004900083E054FEF090E6BCE05480131313541F25
:1004A000FFE0540F2F90E683F0E04420F0806D8051
:1004B00064121168506690E6B8E024FE60192402C8
:1004C000705A90E6BAE0B40104D200804F90E6BAC8
:1004D000E064026047803E90E6BCE0547EFF7E0010
:1004E000E0D394807C0040047D0180027D00EC4ECE
:1004F000FEED4F2440F58274113EF583E493FF3303
:1005000095E0FEEF24A1FFEE34E68F82F5838008AC
:10051000120CD9500790E6A0E04401F090E6A0E06C
:030520004480F024
:0105230022B5
:0300330002115A5D
:04115A0053D8EF3245
:100100001201000200000040B404092000000102B6
:020110000001EC
:0A0114000A0600020000004001008E
:1001200009022000010100A0320904000002FF00C2
:100130000000070502020002000705860200020017
:1001420009022000010100A0320904000002FF00A0
:100152000000070502024000000705860240000079
:100164000403090410034300790070007200650061
:1001740073007300400345005A002D0055005300DE
:100184004200200046005800320020004200610076
:1001940063006B00200074006F00200042006100C7
:1001A40063006B0020004500780061006D00700062
:0601B4006C006500000074
:03000300020AFAF4
:050AFA00D206C2A83283
:1008B300501AB1C0F9A4B0999282F880988883C67F
:1008C300A1868EC106421AAD0000411AAC01421A3C
:1008D300AF7530013000411AAB00C184C10501324C
:0108E3000014
:100BB80090E6007410F00000000000001209C8124E
:100BC8001152901AAF7403F0A374E8F090E612740F
:100BD800A0F000000090E61474E0F0000000E4903B
:100BE800E613F000000090E615F000000090E6041F
:100BF8007480F00000007402F00000007406F00039
:100C08000000E4F000000090E618F0000000741006
:100C1800F000000090E61A7408F000000090E6D298
:100C28007402F000000090E6E214F0000000E49086
:100C3800E671F075B4FB75B2C090E670E04401F05F
:050C4800D2A8D28822B1
:1008E50090E6A5E054F0C4540F24B1F582E4341A1F
:1008F500AB82FA7D017F211210A47F21120F09120C
:100905000D63E5BB30E74DE5AB20E148C286D287F4
:1009150000000090E6F4E030E13A300512000000F6
:1009250090E6D07402F0000000E490E6D18010005B
:100935000000E490E6D0F000000090E6D17440F0AD
:10094500000000000000E4F5BB000000E5BB30E757
:10095500FB00000030046B30A254E5BB30E763C2F6
:1009650086C28700000090E6F4E030E055E5AC2053
:10097500E05030051800000090E6D07402F0000049
:1009850000E490E6D1F0000000053280140000007C
:10099500E490E6D0F000000090E6D17440F000004D
:1009A5000075BB06000000E5BB30E7FB801190E653
:1009B500047480F00000007406F0000000E4F0000C
:0209C500000030
:0109C700220D
:02115E00D3229A
:02116000D32298
:02116200D32296
:100E8F0090E680E030E71800000090E6247402F04E
:100E9F00000000E490E625F0000000D20580160067
:100EAF000000E490E624F000000090E6257440F086
:0D0EBF00000000C20590E6BAE0F531D32234
:10111C0090E740E531F0E490E68AF090E68B04F03D
:02112C00D322CC
:08114A0090E6BAE0F52FD32274
:10112E0090E740E52FF0E490E68AF090E68B04F02D
:02113E00D322BA
:02116400D32294
:02116600D32292
:02116800D32290
:100CD90090E6B9E0244E601714601B14602114607B
:100CE9003114604E24FB706E90E740E53280179016
:100CF900E74074B28010D20490E74074B38007C211
:100D09000490E74074B4F0E490E68AF090E68B042E
:100D1900803A90E74074B5F000000090E6F4E09066
:100D2900E741F0000000E490E68AF090E68B740257
:100D3900801A90E74074B6F0000000A3E5BBF0000C
:100D49000000E490E68AF090E68B7402F090E6A049
:0A0D5900E04480F08002D322C322A0
:1010C000C0E0C083C082D2015391EF90E65D74010D
:0810D000F0D082D083D0E032A1
:1010F000C0E0C083C0825391EF90E65D7404F0D0ED
:0611000082D083D0E03232
:10110600C0E0C083C0825391EF90E65D7402F0D0D8
:0611160082D083D0E0321C
:100F4100C0E0C083C082852925852A268526828521
:100F51002583A37402F0852127852228852882858F
:100F61002783A37407F05391EF90E65D7410F0D0DE
:060F710082D083D0E032C3
:1010D800C0E0C083C082D2035391EF90E65D7408EC
:0810E800F0D082D083D0E03289
:100ECC00C0E0C083C08290E680E030E72085212519
:100EDC00852226852682852583A37402F085292701
:100EEC00852A28852882852783A37407F05391EFE0
:0D0EFC0090E65D7420F0D082D083D0E0320B
:010AFF0032C4
:01116A003252
:01116B003251
:01116C003250
:01116D00324F
:01116E00324E
:01116F00324D
:01117000324C
:01117100324B
:01117200324A
:011173003249
:011174003248
:011175003247
:011176003246
:011177003245
:011178003244
:011179003243
:01117A003242
:01117B003241
:01117C003240
:01117D00323F
:01117E00323E
:01117F00323D
:01118000323C
:01118100323B
:01118200323A
:011183003239
:011184003238
:011185003237
:011186003236
:011187003235
:011188003234
:011189003233
:01118A003232
:01118B003231
:01118C003230
:100DBB00AD07ED30E00D908000E0F530901AABE020
:100DCB0054FEF0ED30E10D909000E0F530901AAB51
:100DDB00E054FDF0ED30E20D90A000E0F530901AFC
:100DEB00ABE054FBF0ED30E30D90B000E0F530904C
:070DFB001AABE054F7F022EF
:100E0200AD07ED30E00D908800E0F530901AABE0D0
:100E12004401F0ED30E10D909800E0F530901AAB0E
:100E2200E04402F0ED30E20D90A800E0F530901AB7
:100E3200ABE04404F0ED30E30D90B800E0F5309003
:070E42001AABE04408F022A6
:100D6300E5AB7F0420E105120E028003120DBBE503
:100D7300AC7F0820E005120E028003120DBB901A0F
:100D8300ADE475F001120AD3FE901AAFE0B5062761
:100D9300A3E0B5F022901AACE07F01600A120DBB0C
:100DA300E4901AACF08009120E02901AAC7401F0B0
:080DB300E4901AADF0A3F02258
:10100C0090E682E030E004E020E60B90E682E030EF
:10101C00E119E030E71590E680E04401F07F147EA2
:0C102C0000120E4990E680E054FEF02215
:100FDD0030070990E680E0440AF0800790E680E053
:100FED004408F07FDC7E05120E4990E65D74FFF03B
:0F0FFD0090E65FF05391EF90E680E054F7F0221A
:08115200E4F51FD2E9D2AF223F
:100F0900AD0790E678E020E6F9C2E990E678E0449A
:100F190080F0ED25E090E679F090E678E030E0F9B0
:100F290090E678E04440F090E678E020E6F990E633
:080F390078E030E1D6D2E92294
:100FAB00AC0790E678E020E6F9E51F702390E67831
:100FBB00E04480F0EC25E090E679F08D1AAF03A9C0
:100FCB0007751B018A1C891DE4F51E751F01D322B1
:020FDB00C3222F
:100F7700AC0790E678E020E6F9E51F702590E67863
:100F8700E04480F0EC25E0440190E679F08D1AAF5B
:100F970003A907751B018A1C891DE4F51E751F032C
:040FA700D322C3226C
:03004B000206F5B5
:1006F500C0E0C083C082C085C084C086758600C046
:10070500D075D000C000C001C002C003C006C0073C
:1007150090E678E030E206751F060207DF90E6787E
:10072500E020E10CE51F64026006751F070207DF84
:10073500E51F24FE605F14603624FE70030207D0B7
:1007450024FC70030207DC240860030207DFAB1BEF
:10075500AA1CA91DAF1E051E8F82758300120A846F
:1007650090E679F0E51E651A7070751F05806B902F
:10077500E679E0AB1BAA1CA91DAE1E8E827583000F
:10078500120AB1751F02E51A6401704E90E678E011
:100795004420F08045E51A24FEB51E0790E678E072
:1007A5004420F0E51A14B51E0A90E678E04440F0BE
:1007B500751F0090E679E0AB1BAA1CA91DAE1E8E25
:1007C50082758300120AB1051E800F90E678E04419
:1007D50040F0751F008003751F005391DFD007D0CF
:1007E50006D003D002D001D000D0D0D086D084D09E
:0807F50085D082D083D0E032F0
:02103800A90706
:10103A00AE2DAF2E8F828E83A3E064037017AD01AD
:10104A0019ED7001228F828E83E07C002FFDEC3E29
:08105A00FEAF0580DFE4FEFF9C
:01106200226B
:10108800120F77E51F24FA600E146006240770F328
:0C109800D322E4F51FD322E4F51FD3227D
:1010A400120FABE51F24FA600E146006240770F3D8
:0C10B400D322E4F51FD322E4F51FD32261
:1010630090E682E044C0F090E681F04387010000FF
:041073000000002257
:100E49008E188F1990E600E054187012E5192401E4
:100E5900FFE43518C313F518EF13F519801590E65B
:100E690000E05418FFBF100BE51925E0F519E51846
:100E790033F518E5191519AE18700215184E6005E5
:060E890012107780EE223A
:101077007400F58690FDA57C05A3E582458370F98C
:011087002246
:03004300020B00AD
:03005300020B009D
:100B00000210C000021106000210F0000210D8000E
:100B1000020F4100020ECC00020AFF0002116A001F
:100B200002116B0002116C0002116D0002116E00C7
:100B300002116F00021170000211710002117200A7
:100B40000211730002116A00021174000211750093
:100B5000021176000211770002117800021179006B
:100B600002117A0002116A0002116A0002116A0081
:100B700002117B0002117C0002117D0002117E0037
:100B800002117F0002118000021181000211820017
:100B900002118300021184000211850002118600F7
:100BA00002118700021188000211890002118A00D7
:080BB00002118B0002118C0000
:03000000020C4DA2
:0C0C4D00787FE4F6D8FD758132020C942B
:100A8400BB010CE58229F582E5833AF583E0225027
:100A940006E92582F8E622BBFE06E92582F8E22271
:0D0AA400E58229F582E5833AF583E493228B
:100AB100F8BB010DE58229F582E5833AF583E8F07B
:100AC100225006E92582C8F622BBFE05E92582C827
:020AD100F2220F
:100AD300C5F0F8A3E028F0C5F0F8E58215827002AE
:060AE3001583E038F0224B
:100AE900EB9FF5F0EA9E42F0E99D42F0E89C45F063
:010AF90022DA
:100C5900020524E493A3F8E493A34003F68001F288
:100C690008DFF48029E493A3F85407240CC8C3339C
:100C7900C4540F4420C8834004F456800146F6DF6B
:100C8900E4800B01020408102040809007FDE47EF7
:100C9900019360BCA3FF543F30E509541FFEE49360
:100CA900A360010ECF54C025E060A840B8E493A327
:100CB900FAE493A3F8E493A3C8C582C8CAC583CA52
:100CC900F0A3C8C582C8CAC583CADFE9DEE780BE0A
:0108E4000013
:00000001FF
