:0A0C040000010202030304040505C9
:10059A00E4F513F512F511F510C203C200C202C246
:1005AA00011208B87E017F008E238F24752B0175F6
:1005BA002C1275210175221C752901752A3C752D8D
:1005CA0001752E5C90E680E030E70E8521258522B4
:1005DA0026852927852A28800C852925852A268586
:1005EA002127852228EE54E0700302070D751400B6
:1005FA007515807E017F008E168F17C374EC9FFFDE
:10060A0074019ECF2402CF3400FEE48F0F8E0EF5C4
:10061A000DF50CF50BF50AF509F508AF0FAE0EADA1
:10062A000DAC0CAB0BAA0AA909A808C3120BF3500C
:10063A002AE515250BF582E514350AF58374CDF004
:10064A00E4FAF9F8E50B2401F50BEA350AF50AE9AB
:10065A003509F509E83508F50880C0E4F50BF50A0F
:10066A00F509F508AF0FAE0EAD0DAC0CAB0BAA0A2F
:10067A00A909A808C3120BF35037E517250BF58211
:10068A00E516350AF583E0FFE515250BF582E51435
:10069A00350AF583EFF0E4FAF9F8E50B2401F50BD6
:1006AA00EA350AF50AE93509F509E83508F5088051
:1006BA00B385142385152474002480FF740134FF44
:1006CA00FEC3E52C9FF52CE52B9EF52BC3E5269F53
:1006DA00F526E5259EF525C3E5289FF528E5279EFD
:1006EA00F527C3E5229FF522E5219EF521C3E52AD8
:1006FA009FF52AE5299EF529C3E52E9FF52EE52DBE
:10070A009EF52DD2E843D82090E668E04409F0909F
:10071A00E65CE0443DF0D2AF90E680E020E105D20D
:10072A0005120A9C90E680E054F7F0538EF8C20353
:10073A00300105120300C201300329120C1A502499
:10074A00C203120B4E20001690E682E030E704E066
:10075A0020E1EF90E682E030E604E020E0E4120ACD
:09076A00F7120C1C120C2680C7CA
:010773002263
:1003000090E6B9E070030203DC1470030204852454
:10031000FE700302051A24FB70030203D614700357
:100320000203D01470030203C41470030203CA242E
:10033000056003020586120C1E400302059290E63A
:10034000BBE024FE602C14604724FD60161460316D
:1003500024067066E52390E6B3F0E52490E6B4F059
:10036000020592E52B90E6B3F0E52C90E6B4F0029E
:100370000592E52590E6B3F0E52690E6B4F0020597
:1003800092E52790E6B3F0E52890E6B4F0020592F6
:1003900090E6BAE0FF120B23AA06A9077B01EA49FF
:1003A0004B600DEE90E6B3F0EF90E6B4F0020592EC
:1003B00090E6A0E04401F002059290E6A0E044013E
:1003C000F0020592120BE1020592120C0E02059248
:1003D00012099F020592120BCF020592120C2040C7
:1003E0000302059290E6B8E0247F602B14603C2461
:1003F00002600302047BA200E433FF25E0FFA202B7
:10040000E4334F90E740F0E4A3F090E68AF090E602
:100410008B7402F0020592E490E740F0A3F090E6BE
:100420008AF090E68B7402F002059290E6BCE054EC
:100430007EFF7E00E0D3948040067C007D01800436
:100440007C007D00EC4EFEED4F2404F582740C3EE2
:10045000F583E493FF3395E0FEEF24A1FFEE34E64D
:100460008F82F583E0540190E740F0E4A3F090E63A
:100470008AF090E68B7402F002059290E6A0E044C8
:1004800001F0020592120C22400302059290E6B898
:10049000E024FE601D2402600302059290E6BAE0AB
:1004A000B40105C20002059290E6A0E04401F0020A
:1004B000059290E6BAE0705990E6BCE0547EFF7E6B
:1004C00000E0D3948040067C007D0180047C007DA8
:1004D00000EC4EFEED4F2404F582740C3EF583E4EF
:1004E00093FF3395E0FEEF24A1FFEE34E68F82F513
:1004F00083E054FEF090E6BCE05480FF13131354E5
:100500001FFFE0540F2F90E683F0E04420F0020537
:100510009290E6A0E04401F08078120C2450739091
:10052000E6B8E024FE60202402706790E6BAE0B4EA
:100530000104D200805C90E6BAE06402605490E668
:10054000A0E04401F0804B90E6BCE0547EFF7E00CA
:10055000E0D3948040067C007D0180047C007D0017
:10056000EC4EFEED4F2404F582740C3EF583E493CB
:10057000FF3395E0FEEF24A1FFEE34E68F82F58392
:10058000E04401F0800C12093A500790E6A0E044E4
:0905900001F090E6A0E04480F0C7
:01059900223F
:03003300020C16A6
:040C160053D8EF328E
:100100001201000200000040B404082000000102B7
:1001100000010A0600020000004001000902200060
:10012000010100A0320904000002FF0000000705E1
:1001300002020002000705860200020009022000F8
:10014000010100A0320904000002FF0000000705C1
:100150000202400000070586024000000403090473
:100160001003430079007000720065007300730093
:100170007C0345005A002D0055005300420020002A
:100180004600580032002000470050004900460059
:10019000200074006F0020004500780074002000EB
:1001A0004600490046004F002000450078006100ED
:1001B0006D0070006C006500200075007300690020
:1001C0006E0067002000530069006E0067006C003D
:1001D000650020005400720061006E007300610031
:0E01E0006300740069006F006E007300000081
:100ACB00501A07C0F9A4B0999282F880988883C60F
:100ADB00A1868E421A030000411A0200421A0575C4
:0B0AEB0030C104411A0000411A010054
:1008B80090E6007412F090E6017403F000000090D6
:1008C800E61274A0F000000090E61474E0F0000056
:1008D8000090E6137420F000000090E6157460F0B4
:1008E80000000090E6047480F00000007402F0003C
:1008F80000007404F00000007406F00000007408A2
:10090800F0000000E4F000000090E618F00000009D
:100918007410F000000090E61A740CF000000090CB
:10092800E60274E0F000000090E6037408F00000AE
:0209380000229B
:010C260022AB
:020C1A00D322E3
:020C1C00D322E1
:020C1E00D322DF
:10099F0090E680E030E71E90E6247402F00000003D
:1009AF0090E626F0000000E490E625F000000090AD
:1009BF00E627F0801CE490E624F000000090E62685
:1009CF00F000000090E6257440F000000090E6274C
:0909DF00F090E6BAE0F51BD3220A
:100BCF0090E740E51BF0E490E68AF090E68B04F0A6
:020BDF00D3221F
:080C0E0090E6BAE0F51AD322CA
:100BE10090E740E51AF0E490E68AF090E68B04F095
:020BF100D3220D
:020C2000D322DD
:020C2200D322DB
:020C2400D322D9
:10093A0090E6B9E0244D603A04705890E604748059
:10094A00F00000007402F0000000E4F000000090E3
:10095A00E740E5ACF090E6ACE090E741F0E490E6E1
:10096A008AF090E68B7402F090E6A0E04480F0D220
:10097A00042290E740E5ACF090E6ACE090E741F065
:10098A00E490E68AF090E68B7402F090E6A0E044E8
:05099A0080F022D322D1
:100B7300C0E0C083C082D2015391EF90E65D74015F
:080B8300F0D082D083D0E032F3
:100BA300C0E0C083C0825391EF90E65D7404F0D03F
:060BB30082D083D0E03285
:100BB900C0E0C083C0825391EF90E65D7402F0D02B
:060BC90082D083D0E0326F
:100A2E00C0E0C083C08290E680E030E70E852125CD
:100A3E00852226852927852A28800C852925852A21
:100A4E00268521278522285391EF90E65D7410F0BC
:070A5E00D082D083D0E0320A
:100B8B00C0E0C083C082D2035391EF90E65D74083E
:080B9B00F0D082D083D0E032DB
:100A6500C0E0C083C08290E680E030E70E85212596
:100A7500852226852927852A28800C852925852AEA
:100A8500268521278522285391EF90E65D7420F075
:070A9500D082D083D0E032D3
:010C2700329A
:010C28003299
:010C29003298
:010C2A003297
:010C2B003296
:010C2C003295
:010C2D003294
:010C2E003293
:010C2F003292
:010C30003291
:010C31003290
:010C3200328F
:010C3300328E
:010C3400328D
:010C3500328C
:010C3600328B
:010C3700328A
:010C38003289
:010C39003288
:010C3A003287
:010C3B003286
:010C3C003285
:010C3D003284
:010C3E003283
:010C3F003282
:010C40003281
:010C41003280
:010C4200327F
:010C4300327E
:010C4400327D
:010C4500327C
:010C4600327B
:010C4700327A
:010C48003279
:010C49003278
:010C4A003277
:100AF70090E682E030E004E020E60B90E682E0300A
:100B0700E119E030E71590E680E04401F07F147EBC
:0C0B1700001209E890E680E054FEF02295
:100A9C0030050990E680E0440AF0800790E680E09B
:100AAC004408F07FDC7E051209E890E65D74FFF0E7
:0F0ABC0090E65FF05391EF90E680E054F7F02260
:020B2300A90720
:100B2500AE2DAF2E8F828E83A3E064037017AD01C7
:100B350019ED7001228F828E83E07C002FFDEC3E43
:080B4500FEAF0580DFE4FEFFB6
:010B4D002285
:100B4E0090E682E044C0F090E681F0438701000019
:040B5E000000002271
:1009E8008E188F1990E600E054187012E51924014A
:1009F800FFE43518C313F518EF13F519801590E6C1
:100A080000E05418FFBF100BE51925E0F519E518AB
:100A180033F518E5191519AE18700215184E60054A
:060A2800120B6280EE22B9
:100B62007400F58690FDA57C05A3E582458370F9A6
:010B72002260
:03004300020800B0
:03005300020800A0
:10080000020B7300020BB900020BA300020B8B005A
:10081000020A2E00020A6500020C2700020C2800C2
:10082000020C2900020C2A00020C2B00020C2C00E6
:10083000020C2D00020C2E00020C2F00020C3000C6
:10084000020C3100020C2800020C3200020C3300B2
:10085000020C3400020C3500020C3600020C37008A
:10086000020C3800020C2800020C2800020C2800A0
:10087000020C3900020C3A00020C3B00020C3C0056
:10088000020C3D00020C3E00020C3F00020C400036
:10089000020C4100020C4200020C4300020C440016
:1008A000020C4500020C4600020C4700020C4800F6
:0808B000020C4900020C4A0091
:0300000002077480
:0C077400787FE4F6D8FD75812E0207BBEB
:100BF300EB9FF5F0EA9E42F0E99D42F0E89C45F058
:010C030022CE
:1007800002059AE493A3F8E493A34003F68001F2F0
:1007900008DFF48029E493A3F85407240CC8C3337A
:1007A000C4540F4420C8834004F456800146F6DF49
:1007B000E4800B0102040810204080900ACBE47E04
:1007C000019360BCA3FF543F30E509541FFEE4933E
:1007D000A360010ECF54C025E060A840B8E493A305
:1007E000FAE493A3F8E493A3C8C582C8CAC583CA30
:1007F000F0A3C8C582C8CAC583CADFE9DEE780BEE8
:010AF60000FF
:00000001FF
